:020000040800F2
:10000000A8090020CD01000875090008FF050008B7
:1000100071090008C3020008A713000800000000CF
:100020000000000000000000000000004D0F00086C
:10003000B504000800000000BD0C0008EF10000827
:10004000E7010008E7010008E7010008E7010008F0
:10005000E7010008E7010008E7010008E7010008E0
:10006000E7010008E7010008E7010008E7010008D0
:10007000E7010008E7010008E7010008E7010008C0
:10008000E7010008E7010008E7010008E7010008B0
:10009000E7010008E7010008E7010008E7010008A0
:1000A000E7010008E7010008E7010008E701000890
:1000B000E7010008E7010008E7010008E701000880
:1000C000E7010008E7010008E7010008E701000870
:1000D000E7010008C1120008E7010008E701000875
:1000E000E7010008E7010008E7010008E701000850
:1000F000E7010008E7010008E7010008E701000840
:10010000E7010008E7010008E7010008E70100082F
:10011000E7010008E7010008E7010008E70100081F
:10012000E7010008E7010008E7010008E70100080F
:1001300000F002F800F03AF80AA090E8000C8244BF
:100140008344AAF10107DA4501D100F02FF8AFF29C
:10015000090EBAE80F0013F0010F18BFFB1A43F0A5
:1001600001031847542F0000742F0000103A24BFD9
:1001700078C878C1FAD8520724BF30C830C144BF0C
:1001800004680C607047000000230024002500264E
:10019000103A28BF78C1FBD8520728BF30C148BFEA
:1001A0000B6070471FB51FBD10B510BD00F05EF8A5
:1001B0001146FFF7F7FF01F08DFC00F07CF803B467
:1001C000FFF7F2FF03BC01F067FA0000094880471F
:1001D00009480047FEE7FEE7FEE7FEE7FEE7FEE729
:1001E000FEE7FEE7FEE7FEE704480549054A064B41
:1001F00070470000F110000831010008A80300203A
:10020000A8090020A8050020A805002070474FF08D
:10021000000200B5134694469646203922BFA0E856
:100220000C50A0E80C50B1F12001BFF4F7AF090762
:1002300028BFA0E80C5048BF0CC05DF804EB890053
:1002400028BF40F8042B08BF704748BF20F8022B96
:1002500011F0804F18BF00F8012B704770477047AE
:100260007047704700487047440300207546FFF709
:10027000F9FFAE4605006946534620F00700854663
:1002800018B020B5FFF7B0FFBDE820404FF00006E2
:100290004FF000074FF000084FF0000B21F007016E
:1002A000AC46ACE8C009ACE8C009ACE8C009ACE8B1
:1002B000C0098D4670470446AFF300802046FFF723
:1002C0007EFF00BFFEE7000010F0805F02D0034910
:1002D000086001E0024948607047000004040240E1
:1002E0000000024021B1026842F00102026004E015
:1002F00002684FF6FE731A400260704701684FF6BD
:10030000FE72114001600021016041608160C160A6
:100310004B49884208D14A490839496841F00F01E0
:10032000474A083A51608AE045491431884208D169
:1003300043490839496841F0F001414A083A51609F
:100340007DE03F492831884208D13D490839496854
:1003500041F470613A4A083A516070E038493C31E2
:10036000884208D136490839496841F47041344A15
:10037000083A516063E032495031884208D130492F
:100380000839496841F470212D4A083A516056E015
:100390002B496431884208D129490839496841F418
:1003A0007001274A083A516049E02549783188426E
:1003B00008D123490839496841F07061204A083A58
:1003C00051603CE01F49884206D1011F096841F095
:1003D0000F01021F116032E01A491431884208D11E
:1003E0001849091F096841F0F001164A121F1160EF
:1003F00025E014492831884208D11249091F0968AB
:1004000041F470610F4A121F116018E00D493C3130
:10041000884208D10B49091F096841F47041094A13
:10042000121F11600BE007495031884207D105497E
:10043000091F096841F47021024A121F11607047B8
:10044000080002400804024001460020002211F08A
:10045000805F02D0054B1A6801E0054B1A680A421A
:1004600001D0012000E0002070470000000402409D
:100470000000024010B50022026847F6F0739A436C
:100480000C6A8B6823430C6923434C6923438C69B2
:100490002343CC6923434C6A23438C6A23431A4386
:1004A0000260CB6843600B6883604B68C36010BD1B
:1004B00041607047704700000549096821F010014C
:1004C000034A11601146096801431160704700003A
:1004D0000020024001460020034A106800F0380066
:1004E0000843106070470000002002402DE9F041F1
:1004F000024600250026002000230024002791F852
:1005000003C00CF00F0591F803C01CF0100F03D0CE
:1005100091F802C04CEA050591F800C0BCF1000F4B
:1005200031D0146800202BE04FF0010C0CFA00F3DE
:10053000B1F800C00CEA03069E4220D183004FF0C0
:100540000F0C0CFA03F7BC4305FA03FC4CEA040455
:1005500091F803C0BCF1280F06D14FF0010C0CFA42
:1005600000FCC2F814C00AE091F803C0BCF1480FC7
:1005700005D14FF0010C0CFA00FCC2F810C0401C71
:100580000828D1D31460B1F800C0BCF1FF0F34DDEE
:10059000546800202EE000F1080C4FF0010808FA22
:1005A0000CF3B1F800C00CEA03069E4221D183008F
:1005B0004FF00F0C0CFA03F7BC4305FA03FC4CEAAE
:1005C000040491F803C0BCF1280F05D100F1080C18
:1005D00008FA0CF8C2F8148091F803C0BCF1480F77
:1005E00007D100F1080C4FF0010808FA0CF8C2F826
:1005F0001080401C0828CED35460BDE8F08100BFB5
:10060000FEE7000008B54020ADF8000003208DF89B
:10061000020014208DF8030069460848FFF766FFC2
:100620008020ADF8000003208DF8020014208DF822
:10063000030069460148FFF759FF08BD000C01405F
:1006400000B540200A49086000F0D6F8802008492B
:10065000091F086000F0D0F840200549091F086014
:1006600000F0CAF840200249086000F0C5F800BD5B
:10067000140C014000B508230022802011490860B5
:1006800014E05006020E40200E49091D086000F0DB
:10069000B3F840200B49086000F0AEF8094808386C
:1006A000006810F0800F01D042F001021800A3F1A1
:1006B0000101CBB2E5D140200249091D0860104676
:1006C00000BD0000100C014000B50246082319E0EF
:1006D00040201149086000F08FF812F0800F04D01C
:1006E00080200D49091F086002E080200A49086047
:1006F0005006020E00F080F840200749091F0860EC
:1007000000F07AF81800A3F10101CBB2E0D140204B
:100710000149086000BD0000140C014000B58020B4
:10072000134908604020086000F066F81048083857
:10073000006808B9012000E0002010F0800F01D00F
:10074000002000BD80200A49091D086000F054F80F
:1007500007480838006810F0800F01D00020F0E74B
:1007600080200349091D086000F046F80120E8E7F1
:10077000100C014000B540200A49086000F03CF828
:1007800080200849086000F037F840200549091F1B
:10079000086000F031F880200249091F086000F06D
:1007A0002BF800BD140C014000B540201149086031
:1007B00000F022F880200F49091F086000F01CF8A3
:1007C00040200C49091F086000F016F809480C3851
:1007D000006810F0800F06D040200649086000F045
:1007E0000BF8002000BD40200249086000F004F82A
:1007F0000120F7E7140C0140062001E0411EC8B2B9
:100800000028FBD1704710B501F01CF900F088FA00
:1008100000F01AF800F0D0F8FFF7F4FE00F003F84B
:1008200000F0C4FD10BD00B5702200213C2000F096
:1008300029FCA02201213C2000F024FC00220221FE
:100840003C2000F01FFC00BD08B50121082000F08D
:1008500057FA0120ADF8000010208DF803000320A6
:100860008DF8020069460248FFF740FE08BD00000F
:10087000000C01402DE9F14F8EB04FF0000BD9462E
:100880000024A24600200D90302101A8FFF7BFFCF4
:100890004FF080410E9801F06FFE0E900E9801F01F
:1008A0000BFE07460022304B01F0F2F9054601F03D
:1008B000BDF90E900E9801F02BFE80B24FF434710A
:1008C00090FBF1F201FB120080B20D902D210D98EA
:1008D00090FBF1F000F0FF0B5C461CB1601E00F0D5
:1008E000FF0901E04FF00F090F2C03D0601C00F04E
:1008F000FF0A01E04FF0000A042009EB490101AAB8
:100900005054282009EB490111444870142009EB88
:10091000490111448870082004EB44015054182008
:1009200004EB440111444870502004EB440111448D
:10093000887004200AEB4A01505428200AEB4A012F
:100940001144487014200AEB4A011144887007488A
:100950000078401C05490870102101A800F094FDA2
:100960000FB0BDE8F08F000000803640200000206E
:1009700000BFFEE7704730B5002419E004F1B00174
:10098000C8B2002100F05EF90021084600F05AF9D3
:100990000021102000F056F9002505E0012100207B
:1009A00000F050F9681CC5B2802DF7DB601CC4B2A2
:1009B000082CE3DB30BD000010B55448806940F0DE
:1009C00008005249886152480068C0F30B00504942
:1009D0000860084600684F4908434D4908604C4884
:1009E0000830006840F0F8004949083108600120EB
:1009F000494908604FF0640001F046F8002047497B
:100A0000C1F8B401642001F03FF8012042490860B8
:100A10004FF000014FF0AE0000F014F9002108463D
:100A200000F010F90021102000F00CF90021402006
:100A300000F008F90021812000F004F90021CF2006
:100A400000F000F90021A12000F0FCF80021C820EE
:100A500000F0F8F80021A62000F0F4F80021A8200A
:100A600000F0F0F800213F2000F0ECF80021D32046
:100A700000F0E8F80021084600F0E4F80021D52055
:100A800000F0E0F80021802000F0DCF80021D920FF
:100A900000F0D8F80021F12000F0D4F80021DA208D
:100AA00000F0D0F80021122000F0CCF80021DB206B
:100AB00000F0C8F80021402000F0C4F800212020F8
:100AC00000F0C0F80021022000F0BCF800218D20C9
:100AD00000F0B8F80021142000F0B4F80021A420A0
:100AE00000F0B0F80021A62000F0ACF80021AF2003
:100AF00000F0A8F80021AF2000F0A4F8FFF73BFFBA
:100B00000021084600F00CF810BD00000010024063
:100B1000040C014000303333B48121420080214273
:100B200030B504460D4605F1B001C8B2002100F011
:100B300089F8102141EA1410002100F083F804F034
:100B40000F0141F00100002100F07CF830BD0000F1
:100B50002DE9F04107460E46904600250024A8F1F5
:100B60002000C5B27F2F02DD0027B01CC6B231467F
:100B70003846FFF7D5FF002408E004EB05110F4AC3
:100B8000505C012100F05EF8601CC4B2082CF4DB5C
:100B9000701CC1B23846FFF7C3FF002409E004EB24
:100BA00005110831054A505C012100F04BF8601C2A
:100BB000C4B2082CF3DBBDE8F0810000282A00084D
:100BC0002DE9FF4F074691461D460D9E4FF0000A46
:100BD000002433E0281B401EC1B20A2000F0ADFF04
:100BE000B9FBF0F00A21B0FBF1F201FB1208BAF1F7
:100BF000000F13D1681EA04210DDB8F1000F0BD119
:100C0000B34606EBDB71491001FB0471C8B2202228
:100C10000199FFF79DFF0FE04FF0010AB34606EB85
:100C2000DB71491001FB0471C8B208F13001CAB28E
:100C30000199FFF78DFF00BF601CC4B2AC42C9DB55
:100C4000BDE8FF8F10B50A461AB10123164C236088
:100C500002E00023144C23604FF00003134C236088
:100C6000194618E00023124C236010F0800F04D0C6
:100C7000012304F10404236002E000230D4C2360EF
:100C80004FF001030A4C23604FEA40634FEA1360C0
:100C900001F10103D9B20829E4DB0123034C2360ED
:100CA000054CC4F8B83110BDB8812142BC81214245
:100CB000AC812142B0812142008021427047000076
:100CC00029B1064A52690243044B5A6104E0034ABF
:100CD00052698243014B5A61704700000010024084
:100CE00029B1064AD2690243044BDA6104E0034A9F
:100CF000D2698243014BDA61704700000010024064
:100D000029B1064A92690243044B9A6104E0034AFE
:100D100092698243014B9A617047000000100240C3
:100D200010B500F041F84FF4803000F095F800F075
:100D3000F1F80446012C24D1002000F081F80020B5
:100D400000F0BCF8A00200F0ADF80220FFF7C2FBF3
:100D50001020FFF7B1FB4FF4E011200400F0C0F8C1
:100D6000012000F0B7F800BF392000F043F8002858
:100D7000FAD0022000F0C2F800BF00F059F80828AD
:100D8000FBD101210C20FFF7BBFF01213020FFF731
:100D9000B7FF0121C020FFF7B3FF012140F201108E
:100DA000FFF7AEFF10BD00000F48006840F00100E3
:100DB0000D490860084640680C4908400A494860E7
:100DC000084600680A490840074908600846006864
:100DD00020F4802008600846406820F4FE00486047
:100DE0004FF41F0088607047001002400000FFF8B9
:100DF000FFFFF6FE10B501460022002300204A1135
:100E0000012A02D1094C236806E0022A02D1074CCC
:100E1000236A01E0054C636A01F01F02012494403B
:100E20001C4201D0012000E0002010BD0010024053
:100E30000248406800F00C007047000000100240BB
:100E400001460020034A506820F0F000084350603B
:100E500070470000001002401149096821F48031F8
:100E60000F4A11601146096821F480211160B0F524
:100E7000803F03D0B0F5802F0ED106E00849096805
:100E800041F48031064A116007E00549096841F4E0
:100E9000A021034A116000E000BF00BF70470000BE
:100EA0000010024001460020034A506820F4E06030
:100EB00008435060704700000010024001460020C7
:100EC000034A506820F4605040EAC1005060704707
:100ED00000100240014908667047000000004242CD
:100EE00002460020044B586820F47C1042EA0103BB
:100EF0001843014B58607047001002400146002023
:100F0000034A506820F00300084350607047000017
:100F10000010024038B5002000900024002500BFDA
:100F20003120FFF767FF05460098401C00900098AD
:100F3000B0F5A06F01D0002DF2D03120FFF75AFF9D
:100F400008B1012400E00024204638BD704710B5E8
:100F500000F002F810BD00000CB5002001900090D8
:100F60003248006840F480303049086000BF2F48A4
:100F7000006800F4003000900198401C0190009837
:100F800018B90198B0F5A06FF1D12848006810F4A5
:100F9000003F02D00120009001E000200090009866
:100FA000012842D12248006840F010002049086022
:100FB0000846006820F0030008600846006840F01A
:100FC00002000860194840681849486008464068AF
:100FD00048600846406840F48060486008464068C1
:100FE00020F47C1048600846406840F4E8104860EF
:100FF0000846006840F08070086000BF0B48006839
:1010000010F0007FFAD00948406820F0030007493B
:1010100048600846406840F00200486000BF03484E
:10102000406800F00C000828F9D10CBD0010024007
:101030000020024070B504460D46FFF76FFB08B96B
:10104000002070BD2046FFF73FFBFFF7ADFB18B94E
:10105000FFF790FB0020F4E72846FFF735FBFFF78A
:10106000A3FBFFF75BFB611CC8B2FFF72DFBFFF78B
:101070009BFBFFF7FFFA0646FFF7E2FAFFF77AFB62
:101080003046DEE770B506460C461546FFF746FBD0
:1010900008B9002070BD3046FFF716FBFFF784FB50
:1010A00018B9FFF767FB0020F4E72046FFF70CFBB9
:1010B000FFF77AFB2846FFF707FBFFF775FBFFF703
:1010C00059FB0120E6E7042808D14FF0E021096927
:1010D00041F004014FF0E022116107E04FF0E02100
:1010E000096921F004014FF0E02211617047704757
:1010F00010B51348006840F0010011490860084627
:101100004068104908400E494860084600680E498A
:1011100008400B4908600846006820F480200860F9
:101120000846406820F4FE0048604FF41F008860C5
:10113000FFF70DFF4FF000600449086010BD00008C
:10114000001002400000FFF8FFFFF6FE08ED00E08F
:1011500021B1028842F00102028004E002884FF6C9
:10116000FE731A40028070471AB183890B43838152
:1011700002E083898B4383817047000070B50024AF
:1011800000220023058C4FF6FF6635400584028C53
:101190008388848B4FF68F752C404FF6FC752C405E
:1011A0000D882C434FF6FF552A400D894FF6FF76E8
:1011B00006EA05252A434D8806EA05252A43154DEA
:1011C000A84202D0144DA8421DD14FF2FF752A400B
:1011D0004D894FF6FF7606EA05252A434FF6FF357F
:1011E0002A408D8806EA05252A434EF6FF752B40D6
:1011F0004DF6FF752B408D8906EA05152B43CD89E9
:1012000006EA05152B4383808483CD888587028475
:1012100070BD0000002C0140003401400022028813
:101220001D4B98420ED01D4B98420BD0B0F1804F11
:1012300008D01B4B984205D01A4B984202D01A4B4B
:10124000984204D14FF68F731A404B881A43174BBC
:10125000984207D0164B984204D04FF6FF431A40ED
:10126000CB881A4302808B8883850B8803850A4BC1
:1012700098420BD0094B984208D00E4B984205D0AB
:101280000D4B984202D00D4B984201D10B7A038648
:101290000123838270470000002C0140003401408C
:1012A0000004004000080040000C00400010004016
:1012B000001400400040014000440140004801404B
:1012C00010B540F225511D4800F03EF810B31B4800
:1012D00000F064F8C4B21A48008810F4004F2BD113
:1012E0001748008810F4804F0CD00A2C03D000203F
:1012F0001349088020E01248008840F4004010495B
:10130000088019E00D2C06D10D48008840F480407B
:101310000B49088010E00A480088C0F30D00094915
:101320000C5407480088401C05490880084600887E
:10133000C72801DD0020088010BD000000380140F2
:10134000180000202400002070B50246002400236D
:1013500000250020A1F510666A3E00D100BFC1F350
:10136000421501F01F03012606FA03F3012D02D1F5
:101370009689334006E0022D02D1168A334001E0FF
:10138000968A33400C12012606FA04F4168834407B
:1013900013B10CB1012000E0002070BD0146888827
:1013A000C0F30800704700BFFEE7000000B59FB023
:1013B000302113A8FEF72BFF01210820FFF7A0FC26
:1013C0000120ADF8000018208DF8030003208DF8EF
:1013D000020069462848FFF789F801210220FFF73B
:1013E0007FFC5920ADF818000020ADF81400ADF8CE
:1013F0001A00ADF8160005A92048FFF70FFF60207E
:10140000ADF804000120ADF806000020ADF80A0098
:10141000ADF80C0001A91948FFF7B0FE01210846FC
:10142000FFF74EFC1648FEF769FF14483C30089061
:101430001448099010200A902A200B9000200C904C
:1014400080200D9040000E9080000F9000201090A2
:101450004FF4005011900020129008A90848FFF79F
:1014600009F8012211020548FFF77EFE102113A89A
:1014700000F00AF81FB000BD000C0140000400405D
:1014800030000240EC0000202DE9F0470646884677
:1014900008EB48002B2101EBC0001FFA80F9002463
:1014A000002742E0002511E007EB47003044407878
:1014B000A84010F0800F01D0322000E019203A49F6
:1014C00021F81400601C84B2681CC5B2082DEBDB47
:1014D000002510E007EB4700305CA84010F0800FBB
:1014E00001D0322000E019202F4921F81400601C9F
:1014F00084B2681CC5B2082DECDB002511E007EBB7
:10150000470030448078A84010F0800F01D032208E
:1015100000E01920244921F81400601C84B2681CE2
:10152000C5B2082DEBDB781CC7B24745BADBA8F182
:10153000010000EB400030448078802111EA002F48
:1015400001D0322000E01920174921F81400601C56
:1015500084B205E00020144921F81400601C84B214
:101560004C45F7DB49461148FEF7A2FF01210F4821
:10157000FEF7B8FE01210E48FFF7EAFD00BF4FF469
:101580000070FEF761FF0028F9D000210848FFF73E
:10159000DFFD00210548FEF7A5FE4FF40070FEF7C1
:1015A00093FEBDE8F0870000EC0000203000024010
:1015B00000040040490050EAC12018BF04204A0D31
:1015C00018BF40F0010040F2FF72B2EB515F08BF5C
:1015D00040F00200012808BF052070472DE9F041C6
:1015E0004F1E00EBC7010446D1E9000115461E4617
:1015F00037F006020DD02A46334600F069FD7F1E03
:1016000004EBC703D3E9002300F042FB37F00602E6
:10161000F1D1022F25D0042F13D0062F18BFBDE81B
:10162000F0812A46334600F053FDD4E90A2300F046
:101630002FFB2A46334600F04BFDD4E9082300F087
:1016400027FB2A46334600F043FDD4E9062300F089
:101650001FFB2A46334600F03BFDD4E9042300F08B
:1016600017FB2A46334600F033FDD4E9022300F08D
:101670000FFB2A46334600F02BFDD4E90023BDE8DA
:10168000F04100F005BB0000024A0020110701F004
:1016900071B8000001FDFFFF014600BF7047000068
:1016A0002DE9F84F04460D4621F0004000917449A1
:1016B000814213DC7349884201DC08D13CB12046E9
:1016C0002946BDE8F84F4FF0010201F053B86E48CB
:1016D000002DCCBF6D496E49BDE8F88F6D49814240
:1016E00011DD6D498142D8BF4FF0FF366DDD2046D8
:1016F0002946FFF75FFF042808BFFFF7C5FF204614
:101700002946BDE8F88F6549654F25F000458142BF
:1017100033DD6449814219DD002632464FF08043B3
:101720002046294600F0B4FA80468A460122204627
:10173000294601F01FF800223B4600F0D3FD424647
:10174000534600F055FB04460D463EE001260022BC
:10175000BA463B462046294600F09AFA80460F4694
:10176000002253462046294600F0BCFD42463B4637
:1017700000F03EFB04460D4627E04B4981421BDD4D
:10178000DFF828810226002243462046294600F041
:101790009FFC00223B4600F07BFA07468A46002267
:1017A00043462046294600F09DFD3A46534600F048
:1017B0001FFB04460D4608E0032622462B46002068
:1017C0003B4900F015FB04460D4622462B461046C9
:1017D000194600F07DFC8B46824602460B4600F01F
:1017E00077FC07460246334888460B460621784474
:1017F000FFF7F4FE52465B4600F06AFC82462E4834
:101800008B463A46434605217844FFF7E7FE3A46C1
:10181000434600F05DFC02460B46002E50465946FA
:101820000CDA00F035FA22462B4600F051FC01B0EC
:1018300022462B46BDE8F04F00F048BD00F028FAE4
:1018400022462B4600F044FC1C4A7A4402EBC603B5
:10185000D3E9002300F046FD22462B4600F042FD6E
:10186000174A7A4402EBC603D3E9002300F02EFDA9
:10187000009A002AB8BF81F00041BDE8F88F00004F
:10188000000010440000F07F182D4454FB21F93F64
:10189000FB21F9BF0000DC3F0000203E0000F33FC9
:1018A0000000F03F0000E63F008003400000F83FEA
:1018B0000000F0BF8E1800004C180000EA1700006E
:1018C000B21700002DE9F04D9446CCF1000423F04E
:1018D00000464CEA0404524F46EAD4749A468846BD
:1018E00021F00042BC4206D8454240EA050442EAE3
:1018F000D474BC4204D9BDE8F04D624600F0C8B9CA
:10190000AAF14055A5F17F6555EA0C040BD00224DD
:1019100004EAAA74434DDFF810E144EAD87452EAAD
:10192000000B04D00CE0BDE8F04DFFF7B9BE002C71
:1019300014BF012CBDE8F08D022C30D0032C32D026
:1019400056EA0C0B0AD0BE4220D1BA4209D126F089
:10195000804622F080423346114617E000291ADB08
:1019600025E0DFF8C8B0FB44002C04BFDBE9000130
:10197000BDE8F08D012C02BFDBE9000181F00041E0
:10198000BDE8F08D022C0AD0032C0CD0BA4212D143
:10199000B8F1000F0BDA23482549BDE8F08D284641
:1019A0002449BDE8F08D28467146BDE8F08D1D48FC
:1019B0002149BDE8F08D921B12153C2AC4BF19487D
:1019C0001D490EDCBAF1000FBEBF12F13C0F002022
:1019D000014606DB624600F00BFA21F00041FFF7FA
:1019E0005FFE002C08BFBDE8F08D012C04BF81F024
:1019F0000041BDE8F08D114A114B022C07D000F0D8
:101A000071FC2A46BDE8F04D0A4B00F06BBC00F0BB
:101A100069FC2A46BDE8F04D064B00F057BC0000BB
:101A20000000F07F182D4454FB2109C04617000028
:101A3000FB21F9BFFB210940FB21F93F075C14336F
:101A400026A6A13C10B56FF00400FFF73CFB0A4846
:101A500000680A49B0FBF1F00949087008460078AF
:101A600000EB4001C1EBC0104FF6FF7101EAC0006E
:101A70000449088010BD00000000002000127A0018
:101A800014000020160000200146114A12884A4323
:101A90004FF0E0235A6100229A611A46126942F01F
:101AA00001021A6100BF4FF0E022106910F0010F2F
:101AB00002D010F4803FF6D04FF0E022126922F0FD
:101AC00001024FF0E0231A6100229A617047000082
:101AD0001600002008B5002400BF00BFFEF793FEEB
:101AE00000F036F8054600F013FD84B21020032301
:101AF0002246022100900020FFF762F8204600F005
:101B000027FD0546FEF7B6FE16E000F021F8054673
:101B100000F0FEFC84B21020032322460021009036
:101B20002820FFF74DF8204600F012FD0546FEF78D
:101B3000A1FE3220FFF7A8FFE7E710B5024601201B
:101B400000E050430B00A1F10104E1B2F9D110BD56
:101B50002DE9F04F87B0002005900690824683461D
:101B6000049003213C20FFF765FA8DF8140004214E
:101B70003C20FFF75FFA8DF8150007213C20FFF7A6
:101B800059FA8DF8160008213C20FFF753FA8DF81A
:101B9000170005213C20FFF74DFA8DF818000621AB
:101BA0003C20FFF747FA8DF819009DF815009DF8C5
:101BB000141040EA012A9DF817009DF8161040EA1B
:101BC000012BBAF5004F03DBAAF57F4AAAF1FF0A01
:101BD000BBF5004F03DBABF57F4BABF1FF0B58467A
:101BE00000F05EFACDE90001504600F059FA804657
:101BF000DDE90023FFF766FE094A0A4BCDE9020141
:101C000000F066FA06460022074B00F041F8044651
:101C100000F00CF80490049807B0BDE8F08F0000C5
:101C2000775AF01ADCA54C400080664021F0004253
:101C3000A2F16052B2F5801F01F0004328BFD2F13B
:101C40007F6C0BD95FEA001C43EAC20242EB507082
:101C500018BF704728BF20F001007047B2F5801F01
:101C6000BCBF184670474FEA410C1CF5001F02D25A
:101C7000084600F048BD70B500F0D4FA00000089B5
:101C8000FFF7F6BF4FF00040A0F58000704700005E
:101C900010B591EA030F48BF83F0004300F12A8397
:101CA000841A71EB030C05D2121943EB0C03001BD1
:101CB00061EB0C01DFF824E14FEA1154A4EB135C53
:101CC0001EEA430F18BF9EEA445F73D023EA0E0357
:101CD000DCF1200E21EA045143F4801332D322FABE
:101CE0000CFE10EB0E0023FA0CFE41EB0E01CCF1C2
:101CF000200E03FA0EFE10EB0E0051F10001B1F5BB
:101D0000801FCCF1200E32D201EB045112FA0EF2F8
:101D1000BDE8104058BF7047401C38BF5FEA420220
:101D200018BF7047002814BF20F0010041F10001E6
:101D30004FEA410313F5001F38BF7047A1F1C041BE
:101D400000F0BEBA012A43EB0302ACF1200CDCF137
:101D50001F0E32BF4FF0000E23FA0CF310EB0300FE
:101D600041EB0451B4EB115FD0D0A1EB045101F56C
:101D7000801149085FEA300001EB04510ED350F1A5
:101D8000000038BF12FA0EFE08D1BDE81040C9E7C6
:101D9000401C38BF5FEA4202CAD1C3E7BDE8104029
:101DA0004FEA410313F5001F38BF7047A1F1C0414E
:101DB00000F086BA9EEA445F08D011EA5E0FBDE8E3
:101DC000104004BF01F0004100207047BDE8104002
:101DD00070B500F027FA00BF64FBBE3E0000E0FFD4
:101DE00002494FF0000000F093BC00BF0000F87FF4
:101DF0002DE9C04130B4DFF8A0C23CEA111418BF8D
:101E00003CEA131400F0EC8081EA03051CEA11148B
:101E100044EAD57418BF1CEA131500F0C780A4EB80
:101E200005044FF0004545EAC12145EAC32341EAD4
:101E3000505143EA525304F17F74994204F500343F
:101E40004FEAC0204FEAC22208BF904200F09C80B7
:101E50004FEA13650FF24016765D4FEA134506FB15
:101E600005F7C7F1807706FB07F74FEAD737A7FBDF
:101E700003687642C8F58038A7FB06CE38BFA8F1C4
:101E8000010807FB08E64FF0000EA6FB028CE6FBFC
:101E900003CEDCF1000CCEF1004E38BFAEF1010EE6
:101EA000A6FB0C584FF000074FF00005E6FB0E872D
:101EB000A1FB08C6A0FB07CE16EB0E0645F10005F8
:101EC000E1FB076515F1E04E7EBFA4F580345FEAC3
:101ED00046066D4116F1800745F100054FEA1727C8
:101EE0004FEA066647EA0567A6F1DE46B6F1805F6F
:101EF0004FEA15251FD9384624F0010C05EBC471B3
:101F0000BCF1FE6F01EB0C1102D8F0BCBDE8008102
:101F100024425CBF01F5801E9EEAC47F02D4F0BC5F
:101F2000BDE80081244238D4F0BCA1F1C041BDE835
:101F3000004100F0C5B94FEAD22242EA43524FEACB
:101F4000D323A7FB02864FEAD02040EA415007FB8B
:101F500003661EEA0E0F4FEAD12105FB026658BF49
:101F6000A6EB0056B6EB00564FEA520E4EEAC37E81
:101F700018EB0E0E56EB530EBDD518EB02085E4162
:101F80007F1C55F10005B6E74FF480154FF00007B0
:101F90004FF000064FF00008ADE7F0BC4FF0000036
:101FA00001F1C04101F00041BDE8008111EA0C1FC0
:101FB0000CEA131500D00CE013EA0C1F00F025808A
:101FC0004FF00000F0BC81EA030101F00041BDE8E0
:101FD0000081F0BCBDE8004181EA030100F070B966
:101FE000F0BCBDE8004170B500F01CF9097EFC3E74
:101FF00000F007B881EA03014FF0000001F0004152
:10200000704781EA030100F05BB9F0BCBDE8004114
:102010004FF0000021497047FFFDFBF9F7F5F4F29E
:10202000F0EEEDEBE9E8E6E4E3E1E0DEDDDBDAD873
:10203000D7D5D4D3D1D0CFCDCCCBCAC8C7C6C5C4D1
:10204000C2C1C0BFBEBDBCBBBAB9B8B7B6B5B4B3E8
:10205000B2B1B0AFAEADACABAAA9A8A8A7A6A5A4D3
:10206000A3A3A2A1A09F9F9E9D9C9C9B9A99999897
:102070009797969595949393929191908F8F8E8E3A
:102080008D8C8C8B8B8A89898888878786858584C7
:1020900084838382828181800000FF070000F87FB3
:1020A00010F0004248BF4042B0FA80F310FA03F14A
:1020B0000AD0C3F11D0303F580634FEA415002EBE0
:1020C000035202EBD12170474FF00000704700002F
:1020D000DFF848C170B51CEA111E1EBF1CEA1315BB
:1020E0009EEA0C0F95EA0C0F00F06F8081EA030462
:1020F00023EA4C134EEAD47E21EA4C1141F48011BC
:1021000043F48013AE44A1FB024CA0FB0365AEF187
:102110007F7E361955EB0C05A1FB034C4CF10003F7
:10212000A0FB021C16EB0C06654153F100030942AB
:1021300018BF46F0010613F4007F0BD14FEA0331BC
:102140004FEA0530340341EA155140EA16506FF06A
:1021500003020AE04FEAC3214FEAC520F40241EA34
:10216000555140EA56506FF0020202EB2E4201EB4D
:10217000025585EACE710AD05FEA440C18BF24F0FC
:10218000004450F1000041F1000120EAD47040F217
:10219000FE7C624500D270BDA84214BF4FF080445F
:1021A0004FF04044002E08BF0024BEF1806FA8BF4E
:1021B000A1F1C041BDE8704080F282804FF0000084
:1021C00001F1C04101F0004170479EEA0C0F0CEA9A
:1021D000131518BF95EA0C0F06D04FF0000081EAE6
:1021E000030E0EF0004170BD00F01CF88900013EA6
:1021F00000F007B800F009B84FEA430C5FEA5C5CF6
:1022000008D081EA030100F05BB84FEA410C5FEAB5
:102210005C5CF6D14FF00000014970470000FF07F9
:102220000000F87F0EF1020E2EF0030E5EF8046B34
:10223000364205D4012A43EB030515F5001F12D8D9
:10224000012841EB010C1CF5001F0CD80ED14FEA00
:10225000D17C15F5001F0CEB4C0C0CF1020C08BFE7
:102260004CEBD37C04E04FF0080C01E04FEAD37C48
:102270000CEB4C0526FA05F606F00706B6F1040C41
:1022800006D20EEB860CBDE870404CF0010C6047A6
:10229000DFE80CF0090B02024FF000414FF00000A4
:1022A000A1F5002170BD19461046012851EB01042B
:1022B00018BFD4F5001484BF002001F0004170BDA8
:1022C0000808A0F500114FEA3101704791EA030FA9
:1022D00010B581F000413FF5E3AC83F0004300F01E
:1022E00009B8000010B591EA030F48BF83F000431E
:1022F0003FF5D6AC841A71EB030C07D212198CF09F
:10230000004C43EB0C03001B61EB0C01DFF8A4E174
:102310004FEA1154A4EB135C1EEA430F18BF9EEA68
:10232000445F00F0B08023EA6E03524221EA045178
:10233000C3EB6E0338BF5B1EDCF1200E25D322FAFF
:102340000CFE10EB0E0043FA0CFE41EB0E01CCF13B
:10235000200E03FA0EFE10EB0E0051F10001CCF13D
:10236000200E29D412FA0EF201EB0451BDE8104000
:1023700058BF7047401C1CBFB2F1004F7047002887
:102380000CBF491C20F00100704712EB020E43EB1A
:10239000030218BF4FF0010E4EEA4202ACF1200CCE
:1023A000DCF11E0E54D943FA0CFE10EB0E0051F175
:1023B000FF31CCF11E0ED5D50EF1010E12FA0EFE34
:1023C000404141EB010101EB445C5FEA5C5C10D9E8
:1023D00010EBDE7001EB045138BFBEF1004FBDE8D9
:1023E000104018BF704700280CBF491C20F00100A6
:1023F000704730D24FEAD42C11F5001124F4006458
:102400001BD0B1FA81F20B3AA41AA41ED2F1200318
:10241000914030FA03F31943904001EBCC71002C4A
:1024200001EB0451BDE81040A8BF704701F1C04165
:102430004FF0000001F000417047B0FA80F310FA4D
:1024400003F100D110BDE41A173C4805C90AE4E7BE
:1024500001EB045110BD491001EB0451BDE81040DF
:102460004FEA300002E04FF0000170474A0008BF19
:102470000042F8D0B2F5001F28BF704701F00041BC
:102480004FF0000070479EEA445F07D011EA5E0FEC
:10249000BDE8104004BF002100207047BDE8104097
:1024A00070B5FFF7BFFE00BF40DFF63E83F000418E
:1024B000104670470000E0FF43004FEAD30C4FEA9C
:1024C0003C0C43401FBF40070CF1605113F0FE4F1E
:1024D00070471CF0006F03D100200CF000417047E2
:1024E0000CF0004343EA507010B540EACC0000F015
:1024F000C4F800BF000000924FEA0001FFF7E0BE01
:102500004FF000414FF00000A1F50021704700009E
:10251000C10DD1F19E0206DB4FEA002343F00043D8
:1025200023FA02F07047004207D54FEA4001B1F1AB
:10253000FE4F02D24FF00000704710B500F09DF83A
:1025400049922480002070476FEA20007047000005
:10255000B0FA80F310FA03F2C3F19D030AD0D90553
:1025600001EB1220530638BF704700F1010008BF8D
:1025700020F00100704700004FF47F0C1CEAD012DD
:102580001EBF1CEAD11392EA0C0F93EA0C0F00F065
:10259000478090EA010F48BF42F480724FF0004C30
:1025A0004CEA00204CEA012102EB0302A0FB0113DC
:1025B000A2F50002002918BF43F001035B0028BF09
:1025C0004FEA330342EB22425FEA132C4CEBC2503A
:1025D0002EBFBCEB436FB2F57C0F70474FEA036C24
:1025E000BCF1004F08BF20F00100B2F57C0F38BFEE
:1025F00070470BD582F0FF0212F5803FC8BF7047CD
:1026000000F1C040D8BF00F00040704700F5000C5A
:102610005FEA4C0C48BF7047B0F1C04000F073B89F
:1026200090EA010F0CEAD11348BF42F48072624570
:1026300038BF634504D280EA010000F000407047D3
:1026400010B500F01AF800BF8900013E00F007B88D
:1026500000F009B85FEA410C5FEA1C6C08D080EA20
:10266000010000F050B85FEA400C5FEA1C6CF6D144
:102670004FF00040A0F5800070470EF1020E2EF0E2
:10268000030E5EF8044B244204D44FEA4102B2F137
:102690007F4F11D84FEA4003B3F17F4F0CD80ED1D2
:1026A0004FEAD07CB2F17F4F0CEB4C0C0CF1020CDA
:1026B00008BF4CEBD17C04E04FF0080C01E04FEA7E
:1026C000D17C0CEB4C0324FA03F404F00704B4F1BE
:1026D000040C06D20EEB840CBDE810404CF0010C4B
:1026E0006047DFE80CF0070802024FF00040A0F559
:1026F000800010BD0846420018BFD2F1807288BF2A
:1027000000F0004010BDFF2141EAD050C0057047E5
:102710000CF00F03092B08BF082000F059800A2B8A
:102720000BD0082B18BF704708BF1CF0400F0AD011
:102730004FF000004FF0000170471CF0400F18BF31
:102740004FF0004070471CF0100F08D020F070438D
:1027500000F07F4242EAD3014FEA4370704700F035
:10276000604021F07F4242EA000201F07F4040EAEF
:10277000727070474FF0FF0C4CF4E06C1CEA115380
:102780001CBF9CEA030C9445C2BFDA4201EB025124
:102790007047002B0DD0BCF1000F0FD0002A01F0C4
:1027A0000041A4BF41F0E04141F07F614FF00000E3
:1027B000704701F000414FF00000704750EA0133CC
:1027C0004FF09B0C18BF4CF0806C7FF409AB704746
:1027D0001CF4801F11D01CF4E02F03D06FEACC3121
:1027E000490070474FF04050EFF3008222F07042F2
:1027F00042EA000282F3008870474FF00000704701
:102800000000000000000000002F00000000070092
:10281000070000147F147F1400242A7F2A1200620C
:1028200064081323003649552250000005030000B8
:1028300000001C224100000041221C000014083E40
:1028400008140008083E0808000000A06000000806
:10285000080808080000606000000020100804025A
:10286000003E5149453E0000427F40000042615118
:102870004946002141454B31001814127F100027B2
:1028800045454539003C4A49493000017109050375
:1028900000364949493600064949291E00003636A6
:1028A0000000000056360000000814224100001409
:1028B00014141414000041221408000201510906E6
:1028C00000324959513E007C1211127C007F494967
:1028D0004936003E41414122007F4141221C007F98
:1028E00049494941007F09090901003E4149497AA6
:1028F000007F0808087F0000417F41000020404120
:102900003F01007F08142241007F40404040007F8B
:10291000020C027F007F0408107F003E4141413ECF
:10292000007F09090906003E4151215E007F091917
:1029300029460046494949310001017F0101003F14
:102940004040403F001F2040201F003F4038403F94
:1029500000631408146300070870080700615149F8
:10296000454300007F41410000552A552A5500008B
:1029700041417F0000040201020400404040404009
:10298000000001020400002054545478007F4844A1
:10299000443800384444442000384444487F0038D8
:1029A0005454541800087E0901020018A4A4A47C01
:1029B000007F080404780000447D400000408084CB
:1029C0007D00007F102844000000417F4000007C13
:1029D00004180478007C080404780038444444381F
:1029E00000FC242424180018242418FC007C08046B
:1029F000040800485454542000043F444020003C44
:102A00004040207C001C2040201C003C4030403CCA
:102A1000004428102844001CA0A0A07C004464545A
:102A20004C4414141414141400000000000000009E
:102A30000000000000000000000000F8000000009E
:102A4000000000333000000000100C06100C0600DF
:102A5000000000000000000040C07840C078400046
:102A6000043F04043F040400007088FC08300000A8
:102A7000001820FF211E0000F008F000E018000000
:102A800000211C031E211E0000F0088870000000B9
:102A90001E2123241927211010160E00000000000B
:102AA0000000000000000000000000E01804020028
:102AB000000000071820400000020418E000000099
:102AC0000040201807000000404080F08040400097
:102AD0000202010F01020200000000F000000000ED
:102AE0000101011F010101000000000000000000C1
:102AF00080B0700000000000000000000000000036
:102B000000010101010101010000000000000000BE
:102B10000030300000000000000000008060180459
:102B2000006018060100000000E010080810E00036
:102B3000000F102020100F00001010F800000000FF
:102B40000020203F20200000007008080888700046
:102B500000302824222130000030088888483000C6
:102B60000018202020110E000000C02010F80000E6
:102B700000070424243F240000F80888880808007F
:102B80000019212020110E0000E010888818000094
:102B9000000F112020110E0000380808C838080066
:102BA0000000003F000000000070880808887000E6
:102BB000001C222121221C0000E010080810E00067
:102BC0000000312222110F00000000C0C0000000F0
:102BD0000000003030000000000000800000000015
:102BE000000080600000000000008040201008000D
:102BF00000010204081020004040404040404000D6
:102C000004040404040404000008102040800000B0
:102C10000020100804020100007048080808F000B5
:102C20000000003036010000C030C828E810E00085
:102C30000718272423140B000000C038E000000010
:102C4000203C23020227382008F88888887000007A
:102C5000203F202020110E00C0300808080838004E
:102C6000071820202010080008F808080810E000C5
:102C7000203F202020100F0008F88888E808100066
:102C8000203F20202320180008F88888E80810003A
:102C9000203F200003000000C03008080838000072
:102CA00007182020221E020008F808000008F80873
:102CB000203F210101213F20000808F808080000FA
:102CC0000020203F2020000000000808F80808002D
:102CD000C08080807F00000008F888C028180800A5
:102CE000203F20012638200008F8080000000000DE
:102CF000203F20202020300008F8F800F8F80800D5
:102D0000203F003F003F200008F830C00008F808CE
:102D1000203F200007183F00E01008080810E000DE
:102D20000F10202020100F0008F808080808F000F5
:102D3000203F210101010000E01008080810E00018
:102D40000F18242438504F0008F8888888887000AD
:102D5000203F2000030C302000708808080838004D
:102D60000038202121221C00180808F80808180043
:102D70000000203F2000000008F808000008F808C4
:102D8000001F202020201F000878880000C8380875
:102D9000000007380E010000F80800F80008F800ED
:102DA000033C0700073C0300081868808068180887
:102DB00020302C03032C30200838C800C838080005
:102DC0000000203F2000000010080808C838080054
:102DD0002038262120201800000000FE02020200F8
:102DE0000000007F40404000000C30C000000000A8
:102DF000000000010638C00000020202FE000000D0
:102E0000004040407F000000000004020202040075
:102E100000000000000000000000000000000000B2
:102E2000808080808080808000020204000000009A
:102E30000000000000000000000080808080000092
:102E40000019242222223F2008F800808000000080
:102E5000003F112020110E00000000808080000043
:102E6000000E112020201100000000808088F80052
:102E7000000E112020103F20000080808080000084
:102E8000001F222222221300008080F088888818E8
:102E90000020203F202000000000808080808000F3
:102EA000006B94949493600008F800808080000088
:102EB000203F210000203F20008098980000000063
:102EC0000020203F20200000000000809898000093
:102ED00000C08080807F000008F8000080808000B3
:102EE000203F24022D302000000808F800000000D8
:102EF0000020203F20200000808080808080800093
:102F0000203F20003F20003F808000808080000024
:102F1000203F210000203F200000808080800000B2
:102F2000001F202020201F008080008080000000E3
:102F300080FFA12020110E00000000808080800012
:102F4000000E112020A0FF80808080008080800003
:102F500020203F2120000100000080808080800030
:102F60000033242424241900008080E080800000A5
:102F70000000001F202000008080000000808000F2
:102F8000001F202020103F20808080000080808053
:102F900000010E30080601008080008000808080E3
:102FA0000F300C030C300F00008080008080800008
:102FB0000020312E0E312000808080000080808033
:102FC00080818E70180601000080808080808000E3
:102FD0000021302C2221300000000000807C020201
:102FE00000000000003F404000000000FF00000023
:102FF00000000000FF0000000002027C80000000D2
:103000000040403F000000000006010102020404ED
:1030100000000000000000004FBB610567ACDD3F11
:10302000182D4454FB21E93F9BF681D20B73EF3FEF
:10303000182D4454FB21F93FE2652F227F2B7A3C67
:10304000075C143326A6813CBDCBF07A8807703C20
:10305000075C143326A6913CC4EB98999999C9BF93
:10306000711623FEC671BCBF6D9A74AFF2B0B3BFC8
:103070009AFDDE522DDEADBF2F6C6A2C44B4A2BF88
:103080000D5555555555D53FFF8300922449C23FF4
:103090006E204CC5CD45B73F513DD0A0660DB13F28
:1030A000EB0D76244B7BA93F11DA22E33AAD903F3A
:1030B0000000000000000000D830000800000020E0
:1030C000240000006C010008FC30000824000020EF
:1030D000840900008801000800A24A0400000000E2
:1030E00000000000010203040607080900000000B8
:0C30F000000000000000000000000000D4
:04000005080001CD21
:00000001FF
